:020000040800F2
:10000000289C0020A1010008571C0008DD1A0008E8
:10001000551C0008B50200082D290008000000004A
:100020000000000000000000000000000D1F00089C
:10003000F302000800000000591C00080F1F000810
:10004000BB010008BB010008BB010008BB010008A0
:10005000BB010008BB010008BB010008BB01000890
:10006000BB010008BB010008BB010008BB01000880
:10007000BB010008BB010008BB010008BB01000870
:10008000BB010008B9020008BB010008BB01000861
:10009000BB010008BB010008BB010008BB01000850
:1000A000BB010008BB010008BB010008BB01000840
:1000B000BB010008BB010008BB010008BB01000830
:1000C000BB010008BB010008BB010008BB01000820
:1000D000BB010008BB010008BB010008BB01000810
:1000E000BB010008BB010008BB010008BB01000800
:1000F000BB010008BB010008BB010008BB010008F0
:10010000BB010008BB010008BB010008BB010008DF
:10011000BB010008BB010008BB010008BB010008CF
:10012000BB010008BB010008BB010008BB010008BF
:10013000BB010008BB010008BB010008BB010008AF
:10014000BB010008BB010008BB010008BB0100089F
:10015000BB010008BB010008BB010008BB0100088F
:10016000BB010008BB010008BB010008BB0100087F
:10017000BB010008BB010008BB0100080000000033
:10018000BB010008BB010008DFF810D000F080F8C8
:10019000004800473D2A0008AFF30080289C00205B
:1001A0000648804706480047FEE7FEE7FEE7FEE711
:1001B000FEE7FEE7FEE7FEE7FEE7FEE7A11F000819
:1001C000890100082DE9F05F0546002092469B4614
:1001D00088460646814640241BE02846414647465D
:1001E000224600F044F853465A46C01A914110D3B3
:1001F00011461846224600F02BF82D1A67EB01082D
:100200004F4622460120002100F022F817EB00099A
:100210004E41201EA4F10104DFDC484631462A4647
:10022000434600F000B830BCBDE8C09FD2B201E048
:1002300000F8012B491EFBD270470022F6E710B5EB
:1002400013460A4604461946FFF7F0FF204610BD44
:10025000202A04DB203A00FA02F100207047914086
:10026000C2F1200320FA03F3194390407047202A7B
:1002700004DB203A21FA02F00021704721FA02F350
:10028000D040C2F120029140084319467047000057
:10029000064C074D06E0E06840F0010394E80700D3
:1002A00098471034AC42F6D3FFF772FFDC2A0008FF
:1002B000FC2A0008FEE70000014800F01DB800001D
:1002C0005C97002030B590F8444004F01C050124F0
:1002D000AC40056C6C60046863608368102B036835
:1002E00003D099600068C26030BD9A600068C16048
:1002F00030BD704772B6FEE7F0B4016C0C6801685F
:100300000D6890F8442002F01C06042202FA06F35D
:10031000234211D06B070FD50B689B0603D40B68E3
:1003200023F004030B6090F8441001F01C018A4094
:10033000016C4A60016B1DE0022303FA06F72742B5
:100340004FF0000C4FF0010218D0AF0716D50C6823
:10035000A40605D40C6824F00A040C6080F825205B
:1003600090F8441001F01C018B40016C4B6080F848
:1003700024C0C16A00291AD0F0BC08470823B34042
:10038000234214D02B0712D50B6823F00E030B6009
:1003900090F84410036C01F01C0102FA01F159605D
:1003A000C26380F8252080F824C0416BE2E7F0BCEE
:1003B0007047000070B568B12B4C036814212B4ABC
:1003C000A34209D22A4C1C44B4FBF1F18900C0E9D4
:1003D00010210BE0012070BD234C64421C44B4FB8F
:1003E000F1F189004164204908390164022180F853
:1003F00025101C6847F6F0718C43D0E9021529439B
:10040000D0E904563543294385692943C569294301
:10041000056A2943214319608168B1F5804F19D0DD
:10042000036C0F21934202D152F8A83F02E00E4A1A
:10043000A032136890F8444004F01C04A1408B43A0
:10044000136090F84430416803F01C03994013682E
:10045000194311600021C163012280F8252080F832
:100460002410084670BD000008040240000002404D
:10047000F8FFFDBF70B5044690F824000025012860
:100480000CD0012084F8240094F825600020012E6F
:1004900006D084F824000225284670BD022070BDD5
:1004A000022684F82560E0632068066826F00106CD
:1004B00006602046FFF706FF206B002820680168D1
:1004C00002D041F00E0106E021F004010160206835
:1004D000016841F00A0101602068016841F00101F2
:1004E0000160D9E72DE9F04FDFF83492002309F1DC
:1004F000040A012403250AF1040B87B00F270BF12E
:10050000040E04E104FA03F632407CD0D1F804C0B2
:10051000BCF1010F08D0BCF1020F05D0BCF1110FE6
:1005200002D0BCF1120F29D1D0F808C0CDF800C01C
:100530004FEA430C05FA0CF8CDF80CC0DDF800C00A
:100540002CEA080CCDF800C0D1F80C80DDF80CC006
:1005500008FA0CF8DDF800C048EA0C08C0F808807A
:10056000D0F8048091F804C028EA0608CCF3001CF7
:100570000CFA03FC4CEA080CC0F804C0D1F8048063
:100580006FEA080C5FEA8C7C09D1D0F82CC02CEA09
:10059000060CC8F3C0069E4046EA0C06C662D0F8B8
:1005A0000CC04FEA430805FA08F62CEA060CCDF811
:1005B000148002968E6806FA08F646EA0C06C660B3
:1005C0004E68022E01D0122E15D1DE0800EB8606F1
:1005D0000396366A4FEA437C4FEADC6807FA08FC68
:1005E00026EA0C06D1F810C00CFA08FC4CEA060CFE
:1005F000039EC6F820C00668DDF808C026EA0C068F
:1006000091F804C000E081E0DDF814800CF0030CE8
:100610000CFA08FC4CEA060CC0F800C04E68F60064
:1006200074D5404ED6F860C04CF0010CC6F860C0DE
:10063000366E23F0030C06F0010600963A4E66442F
:100640000296D6F808C09E074FEA167807FA08F611
:100650002CEA060CB0F1904F04D0344EB04203D1D6
:1006600001261BE0002619E0314EB04201D10226DE
:1006700014E0304EB04201D103260FE02E4EB042BE
:1006800001D104260AE02D4EB04201D1052605E035
:100690002B4EB04201D1062600E0072606FA08F6E6
:1006A00046EA0C06DDF808C0CCF80860D9F800600E
:1006B000CC46D1F8048096435FEAC83800D516438B
:1006C000CCF80060DAF80060D446D1F80480964394
:1006D0005FEA883800D51643CCF80060DBF800608C
:1006E000DC46D1F8048096435FEAC82800D516435B
:1006F000CCF80060DEF80060F446D1F80480964340
:100700005FEA882800D51643CCF800605B1C0A68B5
:1007100032FA03F67FF4F6AE07B000F013B800002B
:1007200000040140001002400000014000040048A5
:1007300000080048000C0048001000480014004861
:100740000018004830BCBDE8C08F0AB18161704715
:1007500081627047014880687047000000000020F7
:1007600002488168027811448160704700000020CF
:1007700010B50024032000F071F8002000F008F804
:1007800008B1012401E000F025F8204610BD00006A
:1007900070B50E4E05460024307898B14FF47A714A
:1007A000B1FBF0F00A490968B1FBF0F000F016FE69
:1007B00040B9102D06D200222946501E00F02EF816
:1007C000756000E00124204670BD0000000000209C
:1007D0000C000020094808B5016E41F001010166D6
:1007E000016E01F001010091816D41F08051816540
:1007F000806D00F08050009008BD000000100240A5
:10080000002809DB00F01F0201219140400980000F
:1008100000F1E020C0F8001170470000F0B40E4B6A
:100820001B680C46C3F30223C3F10705042D00D94E
:100830000425191D072901D2002300E0DB1E012633
:1008400006FA05F1491E214099409E40761E164049
:100850003143F0BC02F06BB80CED00E0064900F04B
:10086000070208684FF6FF03184040EA0220034AD7
:1008700010430860704700000CED00E00000FA052E
:100880001649B0F5007F0868C0F3412009D002285E
:1008900005D0086820F4C06040F480600860002043
:1008A00070470128FBD0086820F4C06040F4007055
:1008B00008600B483222006850430A4AB0FBF2F04D
:1008C000401C00E0401E4A69520501D50028F9D1BC
:1008D00048694005E3D503207047000000700040E0
:1008E0000C00002040420F000248006800F4C06085
:1008F00070470000007000402DE9F84F04460027C3
:100900000088E54D3E46010504F1200B1DD5606EC3
:1009100078B1B0F5800F11D0B0F5000F04D0B0F56C
:10092000400F22D001270FE0E86840F48030E860F3
:100930001BE00021201D01F091F903E00021584641
:1009400001F022FA070010D03E462088C00426D5C8
:10095000A06EC0B1B0F1807F1AD0B0F1007F0DD091
:10096000B0F1407F19D0012718E0D5F88800616EFA
:1009700020F440000843C5F88800E6E7E86840F442
:100980008030E86009E00021201D01F067F903E0F4
:100990000021584601F0F8F90746F7B13E462068B5
:1009A00080033AD5A86D4FF00008C00009D4A86DA7
:1009B00040F08050A865A86D4FF0010800F080500D
:1009C0000090DFF8D8A2DAF8001041F48071CAF87C
:1009D0000010FFF7BFFE814610E0D5F88800A16E39
:1009E00020F040700843C5F88800D8E7FFF7B2FE52
:1009F000A0EB0900022801D9032705E0DAF800007E
:100A0000C005F3D5002F7CD04FEA0706B8F1000FE0
:100A100003D0A86D20F08050A8652078C00707D0CB
:100A2000D5F88800A16B20F003000843C5F88800C2
:100A30002078800707D5D5F88800E16B20F00C00FE
:100A40000843C5F888002078400707D5D5F8880006
:100A5000216C20F030000843C5F88800207800079A
:100A600007D5D5F88800616C20F0C0000843C5F8B0
:100A700088002078C00607D5D5F88800A16C20F43E
:100A800040700843C5F888002078800607D5D5F85F
:100A90008800E16C20F440600843C5F88800208895
:100AA000800507D5D5F88800E16D20F44020084383
:100AB000C5F888002088400507D5D5F88800216E44
:100AC00020F440100843C5F888002078400607D578
:100AD000D5F88800216D20F440500843C5F88800FF
:100AE0002078000607D5D5F88800616D20F44040D5
:100AF0000843C5F888002088C00509D5D5F88800C6
:100B000000E01CE0A16D20F440300843C5F88800E7
:100B100020884FF0006780044FF080684FD5D5F8EB
:100B20008800E16E20F040600843C5F88800E06E60
:100B3000B8423CD1E86840F48010E8603FE0D5F866
:100B4000900010F4407015D0D4F88410814211D078
:100B5000D5F89000D5F8901020F4407041F4803121
:100B6000C5F89010D5F8901021F48031C5F8901098
:100B7000C5F89000C00710D0FFF7ECFD074641F222
:100B8000883906E0FFF7E6FDC11B494501D9032678
:100B90003CE7D5F890008007F4D5D5F89000D4F85C
:100BA000841020F440700843C5F890002EE74045BB
:100BB00005D10121201D01F051F800B10646206841
:100BC000000317D5D5F88800216F20F04060084356
:100BD000C5F88800206FB84204D1E86840F480105E
:100BE000E86007E0404505D10121201D01F036F8FD
:100BF00000B106462068400317D5D5F88800616F1C
:100C000020F040600843C5F88800606FB84204D106
:100C1000E86840F48010E86007E0404505D1012114
:100C2000201D01F01BF800B10646208840041AD5AB
:100C3000D5F88800A16F20F040500843C5F888001F
:100C4000A06FB0F1805F03D0B0F1005F05D00AE083
:100C50000221201D01F002F803E00221584601F0B4
:100C600093F800B106462088000407D5D5F888001F
:100C7000E16F20F080400843C5F888002068C00379
:100C800007D555F8880FD4F8801020F000400843AD
:100C90002860304600F004B80010024000700040A8
:100CA00018BCBDE8E08F00002DE9F0470F460500B5
:100CB00058D0404E306800F00700B84209D2306882
:100CC00020F0070038433060306800F00700B84279
:100CD00048D12878384CC0072CD06868032811D038
:100CE000022812D0216898B1490500293ADAA16892
:100CF00021F003010143A160FFF72CFD804641F282
:100D0000883910E021688901EFE721688903ECE761
:100D10008907EAE7FFF71EFDA0EB0801494502D964
:100D20000320BDE8F087A068696800F00C00B0EB14
:100D3000810FEFD12878800705D5A068A96820F039
:100D4000F0000843A060306800F00700B8420BD9FB
:100D5000306820F0070038433060306800F007004A
:100D6000B84201D00120DCE72878400705D5A0680B
:100D7000E96820F4E0600843A0602878000706D501
:100D8000A068296920F4605040EAC100A06000F02A
:100D90003FF8A168094AC1F30311515C01F01F013A
:100DA000C8400749086007480068BDE8F047FFF7FA
:100DB000EFBC00000020024000100240942A00080E
:100DC0000C000020040000200548064900688968DE
:100DD000054AC1F30221515C01F01F01C840704770
:100DE0000C00002000100240D42A000805480649E3
:100DF00000688968054AC1F3C221515C01F01F01F6
:100E0000C84070470C00002000100240D42A00089F
:100E100070B52549002318468A68CC6812F00C0288
:100E200004F00306214C4FEA640509D00C2A05D0D2
:100E3000042A32D0082A00D1284670BD012E10D1D4
:100E40000B681B0704D4D1F89430C3F3032302E0EA
:100E50000B68C3F30313164E56F82330DAB10C2A8D
:100E6000EBD1C86800F00300022818D0032818D07E
:100E70001846CA68CB68C2F30212C3F30623434381
:100E8000521CB3FBF2F2C868C0F34160401C400042
:100E9000B2FBF0F070BD184670BD204670BD204614
:100EA000E7E72846E5E70000001002400024F400D0
:100EB000A42A00082DE9F84304006FD0FE4DA8686D
:100EC00000F00C06E86800F003072078C00664D53F
:100ED00076B10C2E01D1012F0AD0A0690028286814
:100EE0007AD040F001002860FFF734FC80465DE0D6
:100EF0002868800702D5A0690028DED0216A28680A
:100F0000000703D5286800F0F00004E0D5F894004D
:100F1000F02202EA1010814216D9084600F0B8FF0C
:100F200000283BD1286840F0080028602868216A22
:100F300020F0F000084328606868E16920F47F40F1
:100F400040EA0120686016E0286840F00800286048
:100F50002868216A20F0F000084328606868E16989
:100F600020F47F4040EA0120686026B9206A00F042
:100F70008FFF0028D5D1FFF74BFFA968CF4AC1F3F7
:100F80000311515C01F01F01C840CD490860CD48F4
:100F90000068FFF7FDFB00287ED12EE0CAE000BF0D
:100FA000FFF7D8FBA0EB0800022876D82868800756
:100FB000F6D5286840F0080028602868216A20F0EB
:100FC000F000084328606868E16920F47F4040EA47
:100FD0000120686011E0FFE720F001002860FFF7C2
:100FE000B9FB804606E000BFFFF7B4FBA0EB0800AA
:100FF0000228DAD828688007F6D42078C00740D0C5
:10100000082E18D00C2E01D1032F14D06068B0F533
:10101000803F17D0B0F5A02F286817D020F480307B
:101020002860286820F4802028606068E0B1FFF71D
:1010300091FB804614E02868800322D56068002870
:1010400078D01EE0286840F48030EDE740F480203E
:101050002860F7E7FFF77EFBA0EB08006428A4D820
:1010600028688003F6D50CE0FFF774FB804605E0A6
:10107000FFF770FBA0EB0800642896D8286880036F
:10108000F6D4207880073BD5042E11D00C2E01D148
:10109000022F0DD0E06801E092E1F1E0002828681D
:1010A0001ED040F480702860FFF754FB07460CE028
:1010B000286840050CD5E0680028C1D008E000BFD2
:1010C000FFF748FBC01B022893D828684005F7D5D6
:1010D0006868217C20F0F85040EA016068600FE009
:1010E00020F480702860FFF735FB074605E000BF5D
:1010F000FFF730FBC01B0228B1D828684005F7D4A1
:101100002078000729D560690028D5F8940012D00E
:1011100040F00100C5F89400FFF71CFB074604E00F
:10112000FFF718FBC01B022899D8D5F89400800758
:10113000F6D512E000E120F00100C5F89400FFF7B9
:1011400009FB074605E000BFFFF704FBC01B0228B0
:1011500085D8D5F894008007F6D42078400766D566
:10116000A86D0027C00008D4A86D40F08050A86585
:10117000A86D012700F08050009053480168C90510
:1011800012D40168814641F480710160FFF7E2FAF0
:10119000804605E0FFF7DEFAA0EB080002286FD8D2
:1011A000D9F80000C005F5D5A068012816D005289B
:1011B000D5F8900017D020F00100C5F89000D5F8C0
:1011C000900020F0040000BFC5F89000A06841F234
:1011D0008839C0B1FFF7BEFA80460FE0D5F890001D
:1011E00040F00100F0E740F00400C5F89000F5E79A
:1011F000FFF7B0FAA0EB0801494541D8D5F89000B7
:101200008007F5D50EE0FFF7A5FA804606E000BF9F
:10121000FFF7A0FAA0EB0801494531D8D5F89000B6
:101220008007F5D41FB1A86D20F08050A865A06A92
:1012300038B302280AD00C2E7ED0286820F08070A7
:101240002860286810F0205F77D0AAE0E868E26A9A
:1012500000F0030191422BD1216B00F070020901D3
:101260001039914224D1626B00F4FE41B1EB022FA0
:101270001ED1A26B00F40031072A03D0012202E044
:101280009DE089E00022914212D1A18F00F4C002BA
:1012900049084905A1F50011914209D194F840107F
:1012A00000F0C06049084906A1F1007181425CD09C
:1012B0000C2E41D0286809E000100240942A000852
:1012C0000C000020040000200070004040017ED48B
:1012D0002868C0007BD4286820F080702860FFF761
:1012E00039FA064605E000BFFFF734FA801B0228F2
:1012F00065D828688001F7D4D4E90B016FF00F029C
:1013000002EB01110843A18F5204490802EB41513D
:10131000626B41EA0221084394F840104FF07E428C
:10132000490802EB41610843A16B090940EA4140C9
:10133000E968284A114001E049E02EE00843E860EE
:10134000286840F080702860E86840F08070E860AD
:10135000FFF700FA044604E0FFF7FCF9001B02283F
:101360002DD828688001F7D52FE0286880012CD47B
:10137000286840F080702860E86840F08070E8607D
:10138000FFF7E8F9044604E0FFF7E4F9001B022840
:1013900015D828688001F7D517E0E86820F0030029
:1013A000E860E8680C490840E860FFF7D3F90446B4
:1013B00008E000BFFFF7CEF9001B022802D9032086
:1013C000BDE8F88328688001F4D40020F8E7012004
:1013D000F6E700008C809DF9FFFFEEFE10B5401E81
:1013E000B0F1807F01D3012010BD4FF0E024606197
:1013F0000F21601701F09BFA0020A06107202061F7
:10140000002010BDF0B590F83C20012A39D001240D
:1014100080F83C40022280F83D20026853689568BD
:10142000194E1A4FB24201D0BA4204D123F4700CC3
:101430004B6843EA0C0323F0700C0B6843EA0C037F
:1014400053600268B24210D0B2F1804F0DD0104B01
:101450009A420AD00F4B9A4207D00F4B9A4204D0BF
:10146000BA4202D00D4B9A4204D1896825F080031C
:101470001943916080F83D40002180F83C100846F7
:10148000F0BD0220F0BD0000002C014000340140FE
:101490000004004000080040000C004000400140F3
:1014A00010B5040003D094F83D0010B107E001200E
:1014B00010BD002084F83C00204600F023F80220F4
:1014C00084F83D00211D206800F088FD012084F88B
:1014D000480084F83E0084F83F0084F8400084F817
:1014E000410084F8420084F8430084F8440084F802
:1014F000450084F8460084F8470084F83D00002049
:1015000010BD000038B505460068B0F1804F22D10B
:101510001148816D41F001018165806D104C00F032
:10152000010000900D482060042060601020A06041
:1015300000208021C4E90301890061618900C4E9B8
:10154000061020622046FEF735FF08B1FEF7D2FEF6
:10155000AC622C63A56238BD0010024080000240DE
:101560005C97002070B5044690F83C00012817D025
:10157000012584F83C50022084F83D0022689068E0
:101580002E4B184020F47F4090600868502830D0DF
:101590000DDC20284DD005DC98B310283BD148E065
:1015A000022070BD302844D0402834D139E0602872
:1015B00028D0702806D0B0F5805F2CD0B0F5005F41
:1015C00029D10AE0CB68D1E90121206800F0E8FDCB
:1015D0002068816841F0770109E0CB68D1E90121F9
:1015E000206800F0DDFD2068816841F48041816061
:1015F00011E0CA684968206800F06CFF502120683B
:1016000007E016E0CA684968206800F074FF6021AE
:10161000206800F0CFFD84F83D50002084F83C00A5
:1016200070BDCA684968206800F054FF40212068F6
:10163000EFE7226801461046EBE7000088FFFEFF57
:101640007047000010B586B0044614216846FEF7C6
:10165000F4FD2068B0F1804F15D10C48C16C41F009
:101660000201C164C06C002100F002000590082056
:1016700000900220CDE90101039001200490694609
:101680000348FEF72FFF06B010BD00000010024017
:101690000004004870B5044690F83C000D4601284F
:1016A0000BD0012084F83C000C2A45D007DC5AB14D
:1016B000042A1BD0082A78D12CE0022070BD102A01
:1016C0004ED0142A71D15DE0206800F07BFD2068C7
:1016D000816941F0080181612068816921F004017C
:1016E0008161206881692A69114311E0206800F056
:1016F000B7FD2068816941F40061816120688169DA
:1017000021F480618161206881692A6941EA0221AE
:1017100081614AE0206800F0EBFD2068C16941F07A
:101720000801C1612068C16921F00401C16120681C
:10173000C1692A69114311E0206800F021FE206888
:10174000C16941F40061C1612068C16921F480610F
:10175000C1612068C1692A6941EA0221C16124E0AE
:10176000206800F047FE2068416D41F008014165A6
:101770002068416D21F0040141652068416D2A69AE
:10178000114311E0206800F06DFE2068416D41F4C6
:10179000006141652068416D21F4806141652068E8
:1017A000416D2A6941EA02214165002084F83C002C
:1017B00070BD10B5040003D094F83D0010B107E0EF
:1017C000012010BD002084F83C00204600F022F8E3
:1017D000022084F83D00211D206800F0FFFB01205D
:1017E00084F8480084F83E0084F83F0084F8400004
:1017F00084F8410084F8420084F8430084F84400EF
:1018000084F8450084F8460084F8470084F83D00D9
:10181000002010BD70477047704700002DE9F0416F
:1018200016460D00044610D0042D15D0082D1AD0F0
:101830000C2D1FD0102D24D094F84300022827D05F
:1018400094F84300012826D077E094F83E0002285F
:101850001ED094F83E00F5E794F83F00022817D018
:1018600094F83F00EEE794F84000022810D094F876
:101870004000E7E794F84100022809D094F84100BD
:10188000E0E794F84200022802D094F84200D9E739
:101890000220BDE8F08106B97BBB5249524A534F42
:1018A000022055B1042D18D0082D27D00C2D35D08D
:1018B000102D44D084F843004EE084F83E00606A66
:1018C000C162606A31460263606A47632268606A87
:1018D0003432FEF7CFFD80B934E084F83F00A06ACF
:1018E000C162A06A31460263A06A47632268A06AA7
:1018F0003832FEF7BFFD00B929E01EE084F8400051
:10190000E06AC162E06A31460263E06A47632268C6
:10191000E06A3C32FEF7AEFD78B959E084F8410048
:10192000206BC162206B31460263206B47632268E3
:10193000206B4032FEF79EFDF0B30120A9E784F84A
:10194000420009E02068C16841F4007103E02068AA
:10195000C16841F48061C16001222946206800F01D
:101960009DFB23492068234A234B884209D090429B
:1019700007D0984205D0214DA84202D0204DA84260
:1019800003D1456C45F400454564206888420FD07A
:10199000B0F1804F0CD01B49884209D01A498842C7
:1019A00006D01A49884203D0904201D0984209D10A
:1019B0008168174A114000E00FE0062906D0B1F512
:1019C000803F03D0016841F001010160002060E721
:1019D0002068C16841F40061BDE72068C16841F436
:1019E0008051B8E7B7200008152100084D210008F4
:1019F000002C0140003401400040014000440140FF
:101A0000004801400004004000080040000C004075
:101A10000700010010B5040002D0A06F10B107E06C
:101A2000012010BD002084F87400204600F026F844
:101A30002420A0672068016821F001010160204690
:101A400000F0FEFD0128ECD0606A10B1204600F0E5
:101A500064FD2068416821F49041416020688168FC
:101A600021F02A0181602068016841F001010160D4
:101A70002046BDE8104000F0B4BD000010B586B0AF
:101A8000044614216846FEF7D8FB124920688842B4
:101A90001ED11148816D41F400218165816D01F4F1
:101AA00000210591C16C41F00101C164C06C0221AB
:101AB00000F0010005900320CDE900010021CDE9EF
:101AC00002100820049069464FF09040FEF70AFD8E
:101AD00006B010BD004C004000100240FEE70000C0
:101AE000094808B5816C41F001018164806C0022D5
:101AF00000F00100009011461120FEF78FFEBDE8B6
:101B000008401120FEF77CBE0010024030B587B0BF
:101B100014216846FEF791FB1648C16C41F00101A3
:101B2000C164C16C01F001010591C16C41F010016B
:101B3000C164C16C01F010010591C16C41F002015A
:101B4000C164C06C0C4D00F002004FF4807405902D
:101B5000002221462846FEF7F8FD0120CDE900408D
:101B6000002002900320039069462846FEF7BAFC45
:101B700007B030BD001002400010004810B58EB014
:101B800000240794089409940A940B940C941C2143
:101B900068460D94FEF751FB1E484FF08041C0E9A6
:101BA00000146321C0E90241802104618161FFF7D3
:101BB00077FC08B1FEF79EFB4FF48050079007A911
:101BC0001448FFF7CFFC08B1FEF794FB1148FFF76C
:101BD000F0FD08B1FEF78EFB20200B900BA90D94B1
:101BE0000C48FFF70FFC08B1FEF784FB6020009063
:101BF0000220CDE901040422694606480494FFF757
:101C000049FD08B1FEF776FB0248FFF71BFD0EB059
:101C100010BD0000109700200D4810B50B49016061
:101C20004FF4E1314160002181600C22C160C0E9C4
:101C300004128161C16101624162FFF7EBFE00287D
:101C400003D0BDE81040FEF755BB10BD004C00406E
:101C5000A4970020FEE7FEE7704700002DE9F04161
:101C6000444C05468846E0680026810728680DD068
:101C7000E16801F00301814216D1A8B1E06869680A
:101C8000C0F30210401C88420ED120E0012804D08D
:101C9000022805D0032807D108E02168890701E060
:101CA00021684905002907DB01265FE021688903D7
:101CB00002D421684903F5E7E1686A686FF00F0311
:101CC00021F0730103EB021211430143E16020682C
:101CD00020F080602060FEF73DFD074605E000BF74
:101CE000FEF738FDC01B022837D820680001F7D462
:101CF000B8F1000F18D0B8F1010F1ED0287D4FF0B9
:101D00007E41400801EB4060A96840EA012021695A
:101D1000194A114008432061206840F0806020602B
:101D2000FEF718FD07461AE0A868E96800020909ED
:101D300040EA41402169114AEBE7288A10494008EE
:101D400001EB4050A96840EA012021690D4AE0E713
:101D5000FEF700FDC01B022801D9032606E020681B
:101D60000001F5D52069A969084320613046BDE826
:101D7000F081000000100240FF80FFF9FF80FDFFAE
:101D80000000E0FFFF809FFF2DE9F0413D4C06463B
:101D90008846E0680025810730680DD0E16801F0D1
:101DA0000301814216D1A8B1E0687168C0F3021046
:101DB000401C88420ED120E0012804D0022805D022
:101DC000032807D108E02168890701E02168490557
:101DD000002907DB012551E02168890302D421682D
:101DE0004903F5E7E16872686FF00F0321F07301B2
:101DF00003EB021211430143E160206820F08050A0
:101E00002060FEF7A7FC074605E000BFFEF7A2FC36
:101E1000C01B022829D820688000F7D4B8F1000F31
:101E200015D0307C4FF07E41400801EB4060B16836
:101E300040EA01206169144A11400843606120684A
:101E400040F080502060FEF785FC07460FE0B06848
:101E5000F1680002090940EA414061690B4AEBE779
:101E6000FEF778FCC01B022801D9032506E0206894
:101E70008000F5D560697169084360612846BDE856
:101E8000F081000000100240FF80FFF9FF80FDFF9D
:101E9000F8B51C4D06460024A86DC00002D5FEF71B
:101EA00023FD0DE0A86D40F08050A865A86D00F0FE
:101EB00080500090FEF718FDA96D21F08051A965B2
:101EC000B0F5007F04D0802E07D94FF003040AE05C
:101ED000802E08D9A02E01D804E001D1022402E00E
:101EE000702E00D101240848016821F00701214328
:101EF0000160006800F00700A04201D00120F8BD99
:101F00000020F8BD00100240002002407047FEF79C
:101F100027BC10B5B8B0442122A8FEF78EF91421D1
:101F200033A8FEF78AF988216846FEF786F9022071
:101F3000C10125911021229026912C900121CDE9FB
:101F40002D010A212F910721CDE93010329022A8CE
:101F5000FEF7B0FF08B172B6FEE70F200024339001
:101F60000320CDE934043694042133A83794FEF7D6
:101F70009BFE08B172B6FEE70820009011946846F7
:101F8000FEF7BAFC08B172B6FEE74FF40070FEF738
:101F900077FC002801D072B6FEE738B010BD000013
:101FA0000B48016841F4700101600A48016841F082
:101FB00001010160002181600268074B1A40026044
:101FC0008214C260026822F480220260816170473C
:101FD00088ED00E000100240FFFFF6EA2DE9F0472F
:101FE0000268264B264D274E274F284C4FF0804A3B
:101FF000984209D0504507D0A84205D0B04203D03E
:10200000B84201D0A04204D122F0700C4A6842EAE2
:102010000C02DFF87CC0DFF87C80DFF87C9098420F
:102020000FD050450DD0A8420BD0B04209D0B842D5
:1020300007D0A04205D0604503D0404501D04845B7
:1020400003D122F44075CA682A434D6922F0800208
:102050002A4302608A68C2620A688262984207D094
:10206000A04205D0604503D0404501D0484501D18C
:102070000969016301214161BDE8F087002C01403D
:102080000004004000080040000C00400034014003
:1020900000400140004401400048014010B501F0FB
:1020A0001F030121046A99408C430462016A9A402B
:1020B0001143016210BD10B5846A0121626A824237
:1020C00005D12177C069F8B984F83E101CE0A26AF6
:1020D000824206D102222277C069A8B984F83F1053
:1020E00012E0E26A824206D104222277C06958B91E
:1020F00084F8401008E0226B824205D10822227742
:10210000C06908B984F841102046FFF784FB00201D
:10211000207710BD10B5846A616A814201D1012027
:102120000DE0A16A814201D1022008E0E16A81420A
:1021300001D1042003E0216B814201D108202077E6
:102140002046FFF769FB0020207710BD10B5846A98
:102150000121626A824203D1217784F83E1019E09E
:10216000A26A824204D10220207784F83F1011E055
:10217000E26A824204D10420207784F8401009E00A
:10218000226B824204D10820207784F8411001E0BC
:1021900084F83D102046FFF753FA0020207710BD49
:1021A00010B5846842EA032224F47F440A432243A0
:1021B000826010BD826822F070020A4342F007017B
:1021C000816070472DE9F043026A22F00102026249
:1021D000056A436882691C4C25F0020522400C68A0
:1021E00022F0030214438A68194E2A43174D194FEF
:1021F000DFF864C0DFF86490A84207D0B04205D091
:10220000B84203D0604501D0484506D122F0080805
:10221000CA6842EA080222F00402A84207D0B0428B
:1022200005D0B84203D0604501D0484505D14D697D
:1022300023F440731D438B692B43436084614968D9
:1022400041630262BDE8F0838FFFFEFF002C014076
:10225000003401400040014000440140004801407A
:10226000F0B5026A22F010020262056A42688369D0
:10227000194C1B4E23400C6823F4407343EA04249A
:1022800025F020038D6843EA0513144DA84201D0C0
:10229000B04206D1CF6823F0800343EA071323F04E
:1022A0004003A8420AD0B04208D00E4DA84205D043
:1022B0000D4DA84202D00D4DA84207D14D6922F420
:1022C000406242EA85028D6942EA85024260846189
:1022D000496881630362F0BDFF8FFFFE002C01405F
:1022E00000340140004001400044014000480140EA
:1022F000F0B5026A22F480720262056A4368C2691C
:10230000194C1B4E22400C6822F00302144325F4A2
:1023100000728D6842EA0522144DA84201D0B042F5
:1023200006D1CF6822F4006242EA072222F48062DA
:10233000A8420AD0B04208D00E4DA84205D00E4D9A
:10234000A84202D00D4DA84207D14D6923F4405355
:1023500043EA05138D6943EA05134360C461496884
:10236000C1630262F0BD00008FFFFEFF002C014040
:102370000034014000400140004401400048014059
:1023800030B5026A22F480520262046A4268C3696C
:10239000124D24F400542B400D6823F4407343EA9B
:1023A00005238D6844EA05340D4DA8420BD00D4D30
:1023B000A84208D00C4DA84205D00C4DA84202D02E
:1023C0000B4DA84204D14D6922F4804242EA8512A5
:1023D0004260C36149680164046230BDFF8FFFFE43
:1023E000002C014000340140004001400044014005
:1023F0000048014030B5026A22F480320262046A69
:102400004268436D114D2B400D681D4324F4003389
:102410000C8943EA04430E4CA0420BD00D4CA04261
:1024200008D00D4CA04205D00C4CA04202D00C4C60
:10243000A04204D14C6922F4803242EA0422426074
:10244000456549688165036230BD00008FFFFEFF6E
:10245000002C014000340140004001400044014094
:102460000048014030B5026A22F480120262046A18
:102470004268436D114D24F400142B400D6843EA6B
:1024800005230D8944EA05540D4DA8420BD00D4D8E
:10249000A84208D00C4DA84205D00C4DA84202D04D
:1024A0000B4DA84204D14D6922F4802242EA8522D4
:1024B000426043654968C165046230BDFF8FFFFE1D
:1024C000002C014000340140004001400044014024
:1024D0000048014010B5036A046A24F00104046254
:1024E000846924F0F00444EA021423F00A020A4347
:1024F0008461026210BD10B5036A23F01003036209
:102500008369046A23F4704343EA023224F0A0038F
:1025100043EA01118261016210BD90F82410C907DD
:1025200006D001684A68836A22F400321A434A607E
:1025300090F82410890706D501684A68C36A22F416
:1025400080321A434A6090F82410490706D5016882
:102550004A68036B22F480221A434A6090F82410E0
:10256000090706D501684A68436B22F400421A4302
:102570004A6090F82410C90606D501688A68836B02
:1025800022F480521A438A6090F82410890606D5F6
:1025900001688A68C36B22F400521A438A6090F87B
:1025A0002410490611D501684A68036C22F4801290
:1025B0001A434A60016CB1F5801F06D101684A6870
:1025C000436C22F4C0021A434A6090F824100906B2
:1025D00006D501684A68806C22F4002202434A60F2
:1025E0007047F8B500260446C0F88060FEF7B2F8E0
:1025F0000546206800686FF07E47000708D52B4627
:1026000000224FF400112046009700F03DF960B918
:102610002068006840070AD52B4600224FF480014D
:102620002046009700F030F908B10320F8BD2020C3
:10263000A067E067266684F874600020F8BD00009B
:102640002DE9F0410446016880682269E36910437E
:10265000626900251A431043814F0A68814B1A4072
:1026600002430A6020684168E26821F44051114346
:1026700041602168A069B94201D0226A10438A688A
:1026800022F4306202438A607749226877488A429E
:102690000DD1D0F8880010F0030006D0012866D0D4
:1026A000022854D0032851D163E001204FE0704943
:1026B0008A420BD1D0F8880010F00C0047D00428D3
:1026C00045D0082851D00C2840D152E069498A42AF
:1026D0000BD1D0F8880010F0300038D0102846D048
:1026E000202842D0302831D143E063498A420BD1BF
:1026F000D0F8880010F0C00029D0402837D08028BA
:1027000033D0C02822D134E05C498A420ED1D0F8BF
:10271000880010F440701AD0B0F5807F27D0B0F553
:10272000007F22D0B0F5407F10D122E0BA420DD117
:10273000D0F8880010F4406009D0B0F5806F16D052
:10274000B0F5006F11D0B0F5406F12D010204C4999
:1027500000264FF40043BA422CD160B102280DD0BC
:1027600004280DD008286FD10EE00220EFE70420E6
:10277000EDE70820EBE7FEF727FB03E00B4603E05D
:10278000FEF746FB030066D0626802EB4200984207
:102790005AD8B3EB023F57D8190E1B02500818182D
:1027A00071410023FDF70EFD364AA0F540719142BC
:1027B0004FD949E0E2694FF6EF779A4228D10928CC
:1027C00042D2DFE800F005080D41224141410E00F0
:1027D000FEF7FAFA01E0FEF709FB030001D13AE047
:1027E0000B466068590001EB5001B1FBF0F080B27C
:1027F000A0F11001B94227D84FF6F0710140C0F3A3
:10280000420001432068C16025E0FEF701FBE4E7D8
:10281000092819D2DFE800F005080D181A18181851
:102820000E00FEF7D1FA01E0FEF7E0FA030001D155
:1028300011E00B46606803EB5001B1FBF0F080B291
:10284000A0F11001B94204D9012504E0FEF7E0FA35
:10285000ECE72168C86066662846A666BDE8F08198
:1028600000800040F369FFEF003801400010024093
:102870000044004000480040004C00400050004030
:102880000024F400FFFC0F002DE9F0479A4617469C
:102890000E4604464FF000094FF02008089D39E02D
:1028A000681C37D0FDF756FFA0EB0A00A84222D8DB
:1028B0000DB32068016849072CD5C069C0430005E5
:1028C00028D421684FF4006008622068016821F470
:1028D000D07101602068816821F001018160C4F835
:1028E0007880C4F87C80C4F8808000BF84F874903D
:1028F0000320BDE8F0872068016821F4D0710160F1
:102900002068816821F001018160C4F87880C4F8F2
:102910007C80EBE72068C06936EA000004D0002024
:10292000B842BDD00020E4E70120F9E7FEE709073F
:10293000090E002804DB00F1E02080F80014704745
:1029400000F00F0000F1E02080F8141D704702E055
:1029500008C8121F08C1002AFAD17047704700202A
:1029600001E001C1121F002AFBD17047F0B50C46EF
:10297000002188B017462426144D03E045F8216055
:10298000491CC9B2B1EB441FF8D3694600F020F8E6
:102990006A460DE00021505C00F03CF801EB441366
:1029A000491CC9B245F823002029F4D3641CA4B201
:1029B000BC42EFD378014FF4165103E045F8206094
:1029C000401C80B28842F9D308B0F0BD100000204E
:1029D000F0B50B4600F023F80022C0F30725C4B27F
:1029E000C0F307415FEA1066C2F1070025FA00F75D
:1029F0009F5424FA00FC9F1887F808C021FA00FCB5
:102A000026FA00F0521C87F810C0D2B23876082A95
:102A1000EAD3F0BD08B1402070472420704701463A
:102A200000200A0E62F30F200A0C62F307000A0A64
:102A300062F3174061F31F6070470000FDF798FED6
:102A4000FFF767FAFFF762F8FFF74AF8FFF7E4F8D5
:102A5000FFF794F800224FF480710A48FDF775FEE5
:102A6000052202218020FFF781FF0748016841F01D
:102A7000080101604FF49673044A04210448FEF7EC
:102A8000CDFEFEE700100048182C01401000002089
:102A90001097002000000000000000000102030465
:102AA00006070809A0860100400D0300801A0600F1
:102AB00000350C0040420F0080841E0000093D00DC
:102AC00000127A000024F40000366E010048E8018C
:102AD000006CDC020000000001020304FC2A000874
:102AE00000000020100000004E2900080C2B0008F8
:102AF00010000020189C00005E2900080100000062
:0C2B0000100000000000000000093D0073
:040000050800018965
:00000001FF
